:03000000020B5B95
:0C0B5B00787FE4F6D8FD758168020BA2DB
:1009550053455420434F4E4649472E0A004C69677C
:100965006874206F6E204E756D204C6F636B204C44
:100975004544210A004C69676874206F6666204EFD
:10098500756D204C6F636B204C4544210A0025632F
:10099500007374617274202E2E2E0A004944302093
:1009A5003D20253032782025303278200A00494410
:1009B50031203D20253032782025303278200A003C
:1009C500494432203D2025303278202530327820A8
:1009D5000A0012011001000000083D410721000036
:1009E5000000000109023B00020100A032090400D9
:1009F500000103010100092111010001223E000748
:100A050005810308000A0904010001030102000928
:100A150021100100012234000705820304000A05A4
:100A2500010906A101050719E029E715002501754A
:100A350001950881029501750881019503750105E8
:100A4500081901290391029505750191019506750E
:100A55000826FF000507190029918100C005010935
:100A650002A1010901A100050919012903150025A4
:100A7500017501950381027505950181010501093E
:100A850030093109381581257F750895038106C020
:010A9500C0A0
:100DD200046100000000084C000000000000000058
:100DAE0075A15575A1AAE5B954F84404F5B9E4F551
:020DBE00A12270
:0E0DE300EF4E600905A1EF1F70F61E80F3228F
:0B0D32007F607EEA120D3D7F607EEACC
:100D3D00AD07AC06ED4C600E7FE87E03120DE3EDC2
:070D4D001D70F11C80EE2275
:040E230043C6102290
:100C6300C29FD29EC29DC2CDC2CC438780E475266B
:100C730082F525F524F5237B0AFAF9F8AF26AE258C
:100C8300AD24AC23120835AF038F27AF26AE25ADB5
:100C930024AC23E47B0AFAF9F81208358F268E2553
:100CA3008D248C23C3E5279405748094804011EF31
:100CB3002401F526E43EF525E43DF524E43CF52343
:100CC300E589540F4420F58943C9A0E526F404F5CA
:070CD3008DD28ED299D29C54
:010CDA0022F7
:080E13003098FDC298AF99224E
:080E1B008F993099FDC2992264
:10002A0075A15575A1AAEF600543B101800353B1CB
:07003A00FEE4F5A1F5FF2231
:030E27008FFF2218
:0A0DFF0075A15575A1AA43B1102299
:0E0DF10053D1FB7F027E00120D3D43D1042240
:100CDB00C2EAE4F5E275D18043D10443E2407400EB
:100CEB00FE74508EE5F5E4E5EB54FE4404F5EB752C
:100CFB00D4127400FE74008EEDF5EC53EAF375DC40
:100D0B00027400FE740A8EEFF5EEE5EA54EF4440F0
:100D1B00F5EA75D212E4F5E343E22943D10175D824
:070D2B00FF75E107D2EA2287
:100D7400740AF87400FC7401FD7B007A00794C7EDF
:0D0D8400007F081207D375D30853D2FC225C
:100D91007450F87400FC7401FD7B007A0079617E67
:0D0DA100007F041207D375D50453D4FC2243
:0300430002004672
:0D004600C0E0C0F0C083C082C0D075D008FB
:1000530075370020D903020378E5D9543F700302B2
:10006300034D24E070030202F114601924F16026A9
:10007300240E600302037675D500E5D454FC4402D4
:10008300F5D402037675D300E5D254FC4402F5D2CD
:1000930075560102037685DB37E537640860030292
:1000A30002CF900006E0F557A3E0700BD3E5579419
:1000B3007F74809480400375577F753700900001EB
:1000C300E0F558900000E054606018E5581424FDF2
:1000D30040030202D224FB24FD40030202D280002B
:1000E3000202CFE558B40B0040030202CD9000F7A3
:1000F300F82828730202B10201F70202CD02023886
:100103000202CD0201B80201180202CD0201C102AE
:1001130001DB0202D2900003E024FE601624E060BB
:1001230020242170477565FF7566097567D7753794
:1001330012803C7565FF7566097567E975373B8005
:100143002E900004E0FF7E00700E7565FF75660A51
:1001530075672475373E8017EF64014E700E756521
:10016300FF75660A75676275373480037537FFE577
:1001730057D395374003853757C3E55794087480A1
:10018300948040047F088002AF578F377E0074004D
:10019300F87400FC7401FDAB65AA66A9671207D366
:1001A300C3E5579537F557E5372567F567E43566B2
:1001B300F5660202D2900002E0F5570202D29000E7
:1001C30000E554F0C3E55794017480948050030212
:1001D30002D27537010202D2900002E0F554E554D1
:1001E30070030202D27BFF7A0979551204097568FC
:1001F300010202D2900000E0541FFF7E00640270EF
:100203002A900004E014601B2480600D147019E52B
:10021300D454BC4402F5D48012E5D254BC4402F554
:10022300D2800853D27380037537FFEF4E700302F9
:1002330002D20202CF900000E0541FFD7C00701B2D
:10024300900003E0FE900002E0FBEB64014E7009B6
:100253009009F09320E57880738071ED64024C700F
:100263004B900003E0FE900002E0FDED4E703B90EA
:100273000005E0FE900004E0FDEDFFEE702AEF24A0
:10028300FE60112481601714701EE5D454BF44032B
:10029300F5D4803BE5D4547F440CF5D48031E5D2CA
:1002A30054BF4403F5D2802780228020801E900013
:1002B30000E4F0A3F0C3E5579402748094804005F2
:1002C300753702800A855737800580007537FFE54B
:1002D30037F470097558FF75DCCF020376E5376094
:1002E30004F5DD800375DD0075DCC0020376E55897
:1002F30024FB604414704BC3E557940874809480C6
:1003030040047F088002AF578F377E007400F87473
:1003130000FC7401FDAB65AA66A9671207D3C3E5A8
:10032300579537F557E5372567F567E43566F5667D
:100333008537DD63DC40803BE5E354804557F5E3D7
:10034300800375DD0075DC02802985DB37E55864A1
:1003530009701D900000E060087BFF7A09796280D4
:100363000C900000E070097BFF7A09797A12040986
:1003730063DC80C2D930D81275DC0275D21075D413
:100383001275E300C2DAC2D9C2D830DA09C2DAE59B
:09039300DA30E205800375D8FFA1
:0B039C00D0D0D082D083D0F0D0E0326F
:100BE700120E098F107BFF7A09799385103B120447
:100BF70009E51024BF601D24F1602B14603A1460CE
:100C070009240670467561018003756102120D9112
:100C1700E4F56122E4F556754E1D120D74E4F54EA8
:100C2700E55660FC8022E4F556754E38120D74E4E3
:100C3700F54EE55660FC8010E4F556754E39120DF9
:100C470074E4F54EE55660FC020D74E5D254FC449D
:0B0C570002F5D2E5D454FC4402F5D4B1
:010C6200226F
:100D54007DFF7C00D3EF9400EE648094804007EF25
:0F0D64001F70F11E80EEED1D70011CED4C70E54F
:010D7300225D
:100DC000E4F5568F4E120D74E4F54EE55660FC02C4
:020DD0000D74A0
:100A9600120DAE7F057E00120D3D120C637BFF7AB0
:100AA6000979961204097BFF7A0979A1903FFAE445
:100AB60093753B00F53CA3E493753D00F53E1204A7
:100AC600097BFF7A0979B3903FFCE493753B00F507
:100AD6003CA3E493753D00F53E1204097BFF7A09B9
:100AE60079C5903FFEE493753B00F53CA3E493750E
:100AF6003D00F53E120409120CDBD2AFE4F5D3F546
:100B0600D5F556F5687F887E13120D3DE4F55675CA
:100B16004C08120D74E55660FC754E1BE4F5561232
:100B26000D74E55660FCE4F54E120D74E4F54C12B6
:100B36000D747FE87E03120D3D7F18120DC07FF401
:100B46007E01120D3D7F18120DC0120D32120D32AC
:050B5600120D3980B012
:100B6700020A96E493A3F8E493A34003F68001F204
:100B770008DFF48029E493A3F85407240CC8C3338F
:100B8700C4540F4420C8834004F456800146F6DF5E
:100B9700E4800B0102040810204080900DD2E47E0F
:100BA700019360BCA3FF543F30E509541FFEE49353
:100BB700A360010ECF54C025E060A840B8E493A31A
:100BC700FAE493A3F8E493A3C8C582C8CAC583CA45
:100BD700F0A3C8C582C8CAC583CADFE9DEE780BEFD
:010DE2000010
:10070300E709F608DFFA8046E709F208DFFA803ED8
:1007130088828C83E709F0A3DFFA8032E309F608C5
:10072300DFFA8078E309F208DFFA807088828C832D
:10073300E309F0A3DFFA806489828A83E0A3F608E1
:10074300DFFA805889828A83E0A3F208DFFA804CBB
:1007530080D280FA80C680D4806980F28033801092
:1007630080A680EA809A80A880DA80E280CA8033FB
:1007730089828A83ECFAE493A3C8C582C8CCC58373
:10078300CCF0A3C8C582C8CCC583CCDFE9DEE78043
:100793000D89828A83E493A3F608DFF9ECFAA9F0C2
:1007A300EDFB2289828A83ECFAE0A3C8C582C8CC18
:1007B300C583CCF0A3C8C582C8CCC583CCDFEADE31
:1007C300E880DB89828A83E493A3F208DFF980CC93
:1007D30088F0EF60010E4E60C388F0ED2402B4048C
:1007E3000050B9F582EB2402B4040050AF23234533
:0607F300822390075373FE
:1007F90075F008758200EF2FFFEE33FECD33CDCCB7
:1008090033CCC58233C5829BED9AEC99E582984039
:100819000CF582EE9BFEED9AFDEC99FC0FD5F0D616
:10082900E4CEFBE4CDFAE4CCF9A88222B800C1B940
:100839000059BA002DEC8BF084CFCECDFCE5F0CB7E
:10084900F97818EF2FFFEE33FEED33FDEC33FCEBB7
:1008590033FB10D703994004EB99FB0FD8E5E4F972
:10086900FA227818EF2FFFEE33FEED33FDEC33FC5F
:10087900C933C910D7059BE99A4007EC9BFCE99A53
:10088900F90FD8E0E4C9FAE4CCFB2275F010EF2F98
:10089900FFEE33FEED33FDCC33CCC833C810D70798
:1008A9009BEC9AE899400AED9BFDEC9AFCE899F8D3
:0E08B9000FD5F0DAE4CDFBE4CCFAE4C8F92266
:1003A700E547243BF8E60547227838301002783BCA
:1003B700E475F00112091F0208C72009EB7F2ED24E
:1003C700098018EF540F2490D43440D4FF300D0B1C
:1003D700EF24BFB41A0050032461FFE548600215FB
:1003E70048054BE54B7002054A30100D7838E47527
:1003F700F00112091FEF02090D0200037403D21066
:100407008003E4C210F5478B388A39893AE4F54806
:10041700F54AF54BE54860077F201203E280F57542
:1004270049FFC20AC209C20BC20CC20EC20FC211D7
:100437001203B0FF700D3010057F001203F3AF4BAE
:10044700AE4A22B4255FC2D5C20D1203B0FF24D035
:10045700B40A00501A75F00A784830D50508B6FF77
:100467000106C6A426F620D5047002D20C80D92432
:10047700CFB41A00EF5004C2E5D20D0205F3D20A39
:1004870080C6D20980C0D20B80BCD2D580BAD20E2A
:1004970080B47F201203E2200B077401B5480040A7
:1004A700F11203A7FF1203E202041BD211D20F803D
:1004B700951203A7FB1203A7FA1203A7F94A4B7079
:1004C7000679C47A067BFF200B2EE548602A7E005A
:1004D7008E827583001208E060060EEE654970F0A3
:1004E700C2D5EBC0E0EAC0E0E9C0E0EE12063AD0C0
:1004F700E0F9D0E0FAD0E0FB1208C7FF60AAEBC032
:10050700E0EAC0E0E9C0E01203E2D0E02401F9D05C
:10051700E03400FAD0E0FBE5490460DCD549D98036
:10052700877BFF7A067936D20B809C791080027917
:1005370008C20FC2118008D2D5790A8004790AC28D
:10054700D5E549047002F549E4FAFDFEFF1203A759
:10055700FC7B08200A131203A7FD7B1030090A123F
:1005670003A7FE1203A7FF7B20EC3382D592D55059
:1005770013C3E43009069FFFE49EFEE4200A039DAF
:10058700FDE49CFCE4CBF8C20AEC700CCFCECDCCDA
:10059700E824F8F870F38017C3EF33FFEE33FEED6E
:1005A70033FDEC33FCEB33FB994002FB0FD8E9EB4F
:1005B700300A05F8D0E0C448B20AC0E00AEC4D4E54
:1005C7004F78207B0070C2EAB5490040BCC0E012FA
:1005D700063CD0F0D0E0200A04C4C0E0C4B20AC090
:1005E700F01203CBD0F0D5F0EB02041B12092F0455
:1005F700B85305325804894C04854205364F053EE9
:0F06070044053E49049E430544550528460528F1
:100616004505284706E450048D2D04912E04B42B7D
:1006260004952304B22006CD2A044D48000004ACEC
:100636003F3F3F00790AA2D5200C14300E09B910AD
:10064600020404B9080104A2D5200F0250010420B7
:100656000B68920BB548005034C0E07F20300C196F
:100666007F30A20B720F720E500F120693C20BC28E
:100676000FC20EC2117F30800F300E03E9C0E012A8
:1006860003E2300E03D0E0F9D0E0B548CC300E17C7
:100696007F30B9100C1203E27F58300D077F788047
:1006A60003B908031203E2300B057F2D0203E27F34
:1006B600202011F87F2B200FF322920B80CF286E7B
:1006C600756C6C2900D20A1203A7300AF8C20A78A0
:1006D6004830D50108F602044D2D504349581203FF
:1006E600A72403B405004001E49006DF931203D368
:0D06F600743A1203D3D20C75480402053289
:0A0E09003098FDAF99C2987E0022D8
:1008C700BB010689828A83E0225002E722BBFE022F
:0908D700E32289828A83E4932262
:1008E000BB010CE58229F582E5833AF583E02250CD
:1008F00006E92582F8E622BBFE06E92582F8E22217
:0D090000E58229F582E5833AF583E4932230
:10090D00BB010689828A83F0225002F722BBFE01C9
:02091D00F322C3
:10091F00FAE6FB0808E6F925F0F618E6CA3AF622D9
:10092F00D083D082F8E4937012740193700DA3A357
:10093F0093F8740193F5828883E47374029368606B
:06094F00EFA3A3A380DF6B
:10000300EFB40A07740D12000E740A309811A89900
:10001300B8130CC2983098FDA899C298B811F6305D
:0700230099FDC299F5992235
:00000001FF
